{
  "contractName": "paiement",
  "abi": [
    {
      "anonymous": false,
      "inputs": [
        {
          "indexed": false,
          "name": "_sender",
          "type": "address"
        },
        {
          "indexed": false,
          "name": "_reciever",
          "type": "address"
        },
        {
          "indexed": false,
          "name": "_amount",
          "type": "uint256"
        }
      ],
      "name": "transferFund",
      "type": "event",
      "signature": "0x62d5969633e8a33eb6c8ce39af086f3abf04daa520b3858a6f1acbc0073e9ef9"
    },
    {
      "constant": false,
      "inputs": [
        {
          "name": "_reciever",
          "type": "address"
        }
      ],
      "name": "send",
      "outputs": [
        {
          "name": "",
          "type": "bool"
        }
      ],
      "payable": true,
      "stateMutability": "payable",
      "type": "function",
      "signature": "0x3e58c58c"
    },
    {
      "constant": true,
      "inputs": [],
      "name": "getBalance",
      "outputs": [
        {
          "name": "",
          "type": "uint256"
        }
      ],
      "payable": false,
      "stateMutability": "view",
      "type": "function",
      "signature": "0x12065fe0"
    }
  ],
  "bytecode": "0x608060405234801561001057600080fd5b50610214806100206000396000f3fe60806040526004361061004c576000357c0100000000000000000000000000000000000000000000000000000000900463ffffffff16806312065fe0146100515780633e58c58c1461007c575b600080fd5b34801561005d57600080fd5b506100666100d8565b6040518082815260200191505060405180910390f35b6100be6004803603602081101561009257600080fd5b81019080803573ffffffffffffffffffffffffffffffffffffffff1690602001909291905050506100f7565b604051808215151515815260200191505060405180910390f35b60003373ffffffffffffffffffffffffffffffffffffffff1631905090565b60008173ffffffffffffffffffffffffffffffffffffffff166108fc349081150290604051600060405180830381858888f1935050505015801561013f573d6000803e3d6000fd5b507f62d5969633e8a33eb6c8ce39af086f3abf04daa520b3858a6f1acbc0073e9ef9338334604051808473ffffffffffffffffffffffffffffffffffffffff1673ffffffffffffffffffffffffffffffffffffffff1681526020018373ffffffffffffffffffffffffffffffffffffffff1673ffffffffffffffffffffffffffffffffffffffff168152602001828152602001935050505060405180910390a16001905091905056fea165627a7a72305820c5b573ea37dd0bcaa6a9e8cbfb884cb948accb08a80d172c966e17328e62e0380029",
  "source": "pragma solidity ^0.5.0;\n\ncontract paiement {\n\n    event transferFund(address _sender,address _reciever,uint _amount);\n\n    function send(address payable _reciever) public payable returns(bool){\n        \n        _reciever.transfer(msg.value);\n        emit transferFund(msg.sender,_reciever,msg.value);\n        return true;\n    }\n    function getBalance() public view returns(uint){\n         return msg.sender.balance;\n    }\n}",
  "sourcePath": "/home/abir/Pocteo-repositories/dapp-k8s-v2/contracts/paiement.sol",
  "compiler": {
    "name": "solc",
    "version": "0.5.0+commit.1d4f565a.Emscripten.clang"
  },
  "schemaVersion": "3.0.2",
  "updatedAt": "2019-08-15T12:09:04.424Z",
  "devdoc": {
    "methods": {}
  },
  "userdoc": {
    "methods": {}
  }
}